{
  "_format": "hh-sol-artifact-1",
  "contractName": "ElementalFusion",
  "sourceName": "contracts/ElementalFusion.sol",
  "abi": [
    {
      "inputs": [],
      "stateMutability": "nonpayable",
      "type": "constructor"
    },
    {
      "inputs": [],
      "name": "CooldownRequired",
      "type": "error"
    },
    {
      "inputs": [
        {
          "internalType": "uint8",
          "name": "id",
          "type": "uint8"
        }
      ],
      "name": "InsufficientTributes",
      "type": "error"
    },
    {
      "anonymous": false,
      "inputs": [
        {
          "indexed": true,
          "internalType": "address",
          "name": "account",
          "type": "address"
        },
        {
          "indexed": true,
          "internalType": "address",
          "name": "operator",
          "type": "address"
        },
        {
          "indexed": false,
          "internalType": "bool",
          "name": "approved",
          "type": "bool"
        }
      ],
      "name": "ApprovalForAll",
      "type": "event"
    },
    {
      "anonymous": false,
      "inputs": [
        {
          "indexed": true,
          "internalType": "address",
          "name": "operator",
          "type": "address"
        },
        {
          "indexed": true,
          "internalType": "address",
          "name": "from",
          "type": "address"
        },
        {
          "indexed": true,
          "internalType": "address",
          "name": "to",
          "type": "address"
        },
        {
          "indexed": false,
          "internalType": "uint256[]",
          "name": "ids",
          "type": "uint256[]"
        },
        {
          "indexed": false,
          "internalType": "uint256[]",
          "name": "values",
          "type": "uint256[]"
        }
      ],
      "name": "TransferBatch",
      "type": "event"
    },
    {
      "anonymous": false,
      "inputs": [
        {
          "indexed": true,
          "internalType": "address",
          "name": "operator",
          "type": "address"
        },
        {
          "indexed": true,
          "internalType": "address",
          "name": "from",
          "type": "address"
        },
        {
          "indexed": true,
          "internalType": "address",
          "name": "to",
          "type": "address"
        },
        {
          "indexed": false,
          "internalType": "uint256",
          "name": "id",
          "type": "uint256"
        },
        {
          "indexed": false,
          "internalType": "uint256",
          "name": "value",
          "type": "uint256"
        }
      ],
      "name": "TransferSingle",
      "type": "event"
    },
    {
      "anonymous": false,
      "inputs": [
        {
          "indexed": false,
          "internalType": "string",
          "name": "value",
          "type": "string"
        },
        {
          "indexed": true,
          "internalType": "uint256",
          "name": "id",
          "type": "uint256"
        }
      ],
      "name": "URI",
      "type": "event"
    },
    {
      "inputs": [
        {
          "internalType": "address",
          "name": "account",
          "type": "address"
        },
        {
          "internalType": "uint256",
          "name": "id",
          "type": "uint256"
        }
      ],
      "name": "balanceOf",
      "outputs": [
        {
          "internalType": "uint256",
          "name": "",
          "type": "uint256"
        }
      ],
      "stateMutability": "view",
      "type": "function"
    },
    {
      "inputs": [
        {
          "internalType": "address[]",
          "name": "accounts",
          "type": "address[]"
        },
        {
          "internalType": "uint256[]",
          "name": "ids",
          "type": "uint256[]"
        }
      ],
      "name": "balanceOfBatch",
      "outputs": [
        {
          "internalType": "uint256[]",
          "name": "",
          "type": "uint256[]"
        }
      ],
      "stateMutability": "view",
      "type": "function"
    },
    {
      "inputs": [
        {
          "internalType": "address",
          "name": "account",
          "type": "address"
        },
        {
          "internalType": "uint256",
          "name": "id",
          "type": "uint256"
        },
        {
          "internalType": "uint256",
          "name": "value",
          "type": "uint256"
        }
      ],
      "name": "burn",
      "outputs": [],
      "stateMutability": "nonpayable",
      "type": "function"
    },
    {
      "inputs": [
        {
          "internalType": "address",
          "name": "account",
          "type": "address"
        },
        {
          "internalType": "uint256[]",
          "name": "ids",
          "type": "uint256[]"
        },
        {
          "internalType": "uint256[]",
          "name": "values",
          "type": "uint256[]"
        }
      ],
      "name": "burnBatch",
      "outputs": [],
      "stateMutability": "nonpayable",
      "type": "function"
    },
    {
      "inputs": [
        {
          "internalType": "uint256",
          "name": "id",
          "type": "uint256"
        }
      ],
      "name": "forge",
      "outputs": [],
      "stateMutability": "nonpayable",
      "type": "function"
    },
    {
      "inputs": [
        {
          "internalType": "address",
          "name": "account",
          "type": "address"
        },
        {
          "internalType": "address",
          "name": "operator",
          "type": "address"
        }
      ],
      "name": "isApprovedForAll",
      "outputs": [
        {
          "internalType": "bool",
          "name": "",
          "type": "bool"
        }
      ],
      "stateMutability": "view",
      "type": "function"
    },
    {
      "inputs": [
        {
          "internalType": "address",
          "name": "from",
          "type": "address"
        },
        {
          "internalType": "address",
          "name": "to",
          "type": "address"
        },
        {
          "internalType": "uint256[]",
          "name": "ids",
          "type": "uint256[]"
        },
        {
          "internalType": "uint256[]",
          "name": "amounts",
          "type": "uint256[]"
        },
        {
          "internalType": "bytes",
          "name": "data",
          "type": "bytes"
        }
      ],
      "name": "safeBatchTransferFrom",
      "outputs": [],
      "stateMutability": "nonpayable",
      "type": "function"
    },
    {
      "inputs": [
        {
          "internalType": "address",
          "name": "from",
          "type": "address"
        },
        {
          "internalType": "address",
          "name": "to",
          "type": "address"
        },
        {
          "internalType": "uint256",
          "name": "id",
          "type": "uint256"
        },
        {
          "internalType": "uint256",
          "name": "amount",
          "type": "uint256"
        },
        {
          "internalType": "bytes",
          "name": "data",
          "type": "bytes"
        }
      ],
      "name": "safeTransferFrom",
      "outputs": [],
      "stateMutability": "nonpayable",
      "type": "function"
    },
    {
      "inputs": [
        {
          "internalType": "address",
          "name": "operator",
          "type": "address"
        },
        {
          "internalType": "bool",
          "name": "approved",
          "type": "bool"
        }
      ],
      "name": "setApprovalForAll",
      "outputs": [],
      "stateMutability": "nonpayable",
      "type": "function"
    },
    {
      "inputs": [
        {
          "internalType": "bytes4",
          "name": "interfaceId",
          "type": "bytes4"
        }
      ],
      "name": "supportsInterface",
      "outputs": [
        {
          "internalType": "bool",
          "name": "",
          "type": "bool"
        }
      ],
      "stateMutability": "view",
      "type": "function"
    },
    {
      "inputs": [
        {
          "internalType": "uint256",
          "name": "",
          "type": "uint256"
        }
      ],
      "name": "uri",
      "outputs": [
        {
          "internalType": "string",
          "name": "",
          "type": "string"
        }
      ],
      "stateMutability": "view",
      "type": "function"
    },
    {
      "inputs": [],
      "name": "viewElementalsData",
      "outputs": [
        {
          "components": [
            {
              "components": [
                {
                  "internalType": "uint256",
                  "name": "id",
                  "type": "uint256"
                },
                {
                  "internalType": "string",
                  "name": "name",
                  "type": "string"
                },
                {
                  "internalType": "uint8[]",
                  "name": "tributes",
                  "type": "uint8[]"
                },
                {
                  "internalType": "bool",
                  "name": "cooldown",
                  "type": "bool"
                }
              ],
              "internalType": "struct Elemental",
              "name": "elemental",
              "type": "tuple"
            },
            {
              "internalType": "uint256",
              "name": "balance",
              "type": "uint256"
            },
            {
              "internalType": "uint256",
              "name": "cooldownTimer",
              "type": "uint256"
            }
          ],
          "internalType": "struct ElementalResponse[7]",
          "name": "",
          "type": "tuple[7]"
        }
      ],
      "stateMutability": "view",
      "type": "function"
    }
  ],
  "bytecode": "0x60806040523480156200001157600080fd5b506040518060600160405280603f81526020016200486d603f91396200003d816200005660201b60201c565b506200005060036200006b60201b60201c565b62001035565b806002908162000067919062000f1f565b5050565b6040518060800160405280600081526020016040518060400160405280600b81526020017f46697265205370726974650000000000000000000000000000000000000000008152508152602001600067ffffffffffffffff811115620000d657620000d562000cb0565b5b604051908082528060200260200182016040528015620001055781602001602082028036833780820191505090505b508152602001600115158152508160006007811062000129576200012862001006565b5b600402016000820151816000015560208201518160010190816200014e919062000f1f565b5060408201518160020190805190602001906200016d92919062000bd8565b5060608201518160030160006101000a81548160ff0219169083151502179055509050506040518060800160405280600181526020016040518060400160405280600b81526020017f417175612044656c66696e0000000000000000000000000000000000000000008152508152602001600067ffffffffffffffff811115620001fc57620001fb62000cb0565b5b6040519080825280602002602001820160405280156200022b5781602001602082028036833780820191505090505b50815260200160011515815250816001600781106200024f576200024e62001006565b5b6004020160008201518160000155602082015181600101908162000274919062000f1f565b5060408201518160020190805190602001906200029392919062000bd8565b5060608201518160030160006101000a81548160ff0219169083151502179055509050506040518060800160405280600281526020016040518060400160405280600b81526020017f456172746820476f6c656d0000000000000000000000000000000000000000008152508152602001600067ffffffffffffffff81111562000322576200032162000cb0565b5b604051908082528060200260200182016040528015620003515781602001602082028036833780820191505090505b508152602001600115158152508160026007811062000375576200037462001006565b5b600402016000820151816000015560208201518160010190816200039a919062000f1f565b506040820151816002019080519060200190620003b992919062000bd8565b5060608201518160030160006101000a81548160ff0219169083151502179055509050506040518060800160405280600381526020016040518060400160405280600d81526020017f537465616d2053657270656e74000000000000000000000000000000000000008152508152602001600267ffffffffffffffff81111562000448576200044762000cb0565b5b604051908082528060200260200182016040528015620004775781602001602082028036833780820191505090505b50815260200160001515815250816003600781106200049b576200049a62001006565b5b60040201600082015181600001556020820151816001019081620004c0919062000f1f565b506040820151816002019080519060200190620004df92919062000bd8565b5060608201518160030160006101000a81548160ff0219169083151502179055509050506000816003600781106200051c576200051b62001006565b5b6004020160020160008154811062000539576200053862001006565b5b90600052602060002090602091828204019190066101000a81548160ff021916908360ff1602179055506001816003600781106200057c576200057b62001006565b5b6004020160020160018154811062000599576200059862001006565b5b90600052602060002090602091828204019190066101000a81548160ff021916908360ff1602179055506040518060800160405280600481526020016040518060400160405280600981526020017f4d756420546974616e00000000000000000000000000000000000000000000008152508152602001600267ffffffffffffffff8111156200062e576200062d62000cb0565b5b6040519080825280602002602001820160405280156200065d5781602001602082028036833780820191505090505b508152602001600015158152508160046007811062000681576200068062001006565b5b60040201600082015181600001556020820151816001019081620006a6919062000f1f565b506040820151816002019080519060200190620006c592919062000bd8565b5060608201518160030160006101000a81548160ff02191690831515021790555090505060018160046007811062000702576200070162001006565b5b600402016002016000815481106200071f576200071e62001006565b5b90600052602060002090602091828204019190066101000a81548160ff021916908360ff16021790555060028160046007811062000762576200076162001006565b5b600402016002016001815481106200077f576200077e62001006565b5b90600052602060002090602091828204019190066101000a81548160ff021916908360ff1602179055506040518060800160405280600581526020016040518060400160405280600a81526020017f4c617661204669656e64000000000000000000000000000000000000000000008152508152602001600267ffffffffffffffff81111562000814576200081362000cb0565b5b604051908082528060200260200182016040528015620008435781602001602082028036833780820191505090505b508152602001600015158152508160056007811062000867576200086662001006565b5b600402016000820151816000015560208201518160010190816200088c919062000f1f565b506040820151816002019080519060200190620008ab92919062000bd8565b5060608201518160030160006101000a81548160ff021916908315150217905550905050600081600560078110620008e857620008e762001006565b5b6004020160020160008154811062000905576200090462001006565b5b90600052602060002090602091828204019190066101000a81548160ff021916908360ff16021790555060028160056007811062000948576200094762001006565b5b6004020160020160018154811062000965576200096462001006565b5b90600052602060002090602091828204019190066101000a81548160ff021916908360ff1602179055506040518060800160405280600681526020016040518060400160405280601181526020017f456c656d656e74616c2050686f656e69780000000000000000000000000000008152508152602001600367ffffffffffffffff811115620009fa57620009f962000cb0565b5b60405190808252806020026020018201604052801562000a295781602001602082028036833780820191505090505b508152602001600015158152508160066007811062000a4d5762000a4c62001006565b5b6004020160008201518160000155602082015181600101908162000a72919062000f1f565b50604082015181600201908051906020019062000a9192919062000bd8565b5060608201518160030160006101000a81548160ff02191690831515021790555090505060008160066007811062000ace5762000acd62001006565b5b6004020160020160008154811062000aeb5762000aea62001006565b5b90600052602060002090602091828204019190066101000a81548160ff021916908360ff16021790555060018160066007811062000b2e5762000b2d62001006565b5b6004020160020160018154811062000b4b5762000b4a62001006565b5b90600052602060002090602091828204019190066101000a81548160ff021916908360ff16021790555060028160066007811062000b8e5762000b8d62001006565b5b6004020160020160028154811062000bab5762000baa62001006565b5b90600052602060002090602091828204019190066101000a81548160ff021916908360ff16021790555050565b82805482825590600052602060002090601f0160209004810192821562000c735791602002820160005b8382111562000c4257835183826101000a81548160ff021916908360ff160217905550926020019260010160208160000104928301926001030262000c02565b801562000c715782816101000a81549060ff021916905560010160208160000104928301926001030262000c42565b505b50905062000c82919062000c86565b5090565b5b8082111562000ca157600081600090555060010162000c87565b5090565b600081519050919050565b7f4e487b7100000000000000000000000000000000000000000000000000000000600052604160045260246000fd5b7f4e487b7100000000000000000000000000000000000000000000000000000000600052602260045260246000fd5b6000600282049050600182168062000d2757607f821691505b60208210810362000d3d5762000d3c62000cdf565b5b50919050565b60008190508160005260206000209050919050565b60006020601f8301049050919050565b600082821b905092915050565b60006008830262000da77fffffffffffffffffffffffffffffffffffffffffffffffffffffffffffffffff8262000d68565b62000db3868362000d68565b95508019841693508086168417925050509392505050565b6000819050919050565b6000819050919050565b600062000e0062000dfa62000df48462000dcb565b62000dd5565b62000dcb565b9050919050565b6000819050919050565b62000e1c8362000ddf565b62000e3462000e2b8262000e07565b84845462000d75565b825550505050565b600090565b62000e4b62000e3c565b62000e5881848462000e11565b505050565b5b8181101562000e805762000e7460008262000e41565b60018101905062000e5e565b5050565b601f82111562000ecf5762000e998162000d43565b62000ea48462000d58565b8101602085101562000eb4578190505b62000ecc62000ec38562000d58565b83018262000e5d565b50505b505050565b600082821c905092915050565b600062000ef46000198460080262000ed4565b1980831691505092915050565b600062000f0f838362000ee1565b9150826002028217905092915050565b62000f2a8262000ca5565b67ffffffffffffffff81111562000f465762000f4562000cb0565b5b62000f52825462000d0e565b62000f5f82828562000e84565b600060209050601f83116001811462000f97576000841562000f82578287015190505b62000f8e858262000f01565b86555062000ffe565b601f19841662000fa78662000d43565b60005b8281101562000fd15784890151825560018201915060208501945060208101905062000faa565b8683101562000ff1578489015162000fed601f89168262000ee1565b8355505b6001600288020188555050505b505050505050565b7f4e487b7100000000000000000000000000000000000000000000000000000000600052603260045260246000fd5b61382880620010456000396000f3fe608060405234801561001057600080fd5b50600436106100b35760003560e01c80636b20c454116100715780636b20c454146101b2578063a22cb465146101ce578063a94e834b146101ea578063e985e9c514610206578063f242432a14610236578063f5298aca14610252576100b3565b8062fdd58e146100b857806301ffc9a7146100e85780630e89341c146101185780632eb2c2d6146101485780634e1273f41461016457806368d203ba14610194575b600080fd5b6100d260048036038101906100cd919061216e565b61026e565b6040516100df91906121bd565b60405180910390f35b61010260048036038101906100fd9190612230565b610336565b60405161010f9190612278565b60405180910390f35b610132600480360381019061012d9190612293565b610418565b60405161013f9190612350565b60405180910390f35b610162600480360381019061015d919061256f565b6104ac565b005b61017e60048036038101906101799190612701565b61054d565b60405161018b9190612837565b60405180910390f35b61019c610666565b6040516101a99190612aed565b60405180910390f35b6101cc60048036038101906101c79190612b0f565b6108fc565b005b6101e860048036038101906101e39190612bc6565b610999565b005b61020460048036038101906101ff9190612293565b6109af565b005b610220600480360381019061021b9190612c06565b610bbd565b60405161022d9190612278565b60405180910390f35b610250600480360381019061024b9190612c46565b610c51565b005b61026c60048036038101906102679190612cdd565b610cf2565b005b60008073ffffffffffffffffffffffffffffffffffffffff168373ffffffffffffffffffffffffffffffffffffffff16036102de576040517f08c379a00000000000000000000000000000000000000000000000000000000081526004016102d590612da2565b60405180910390fd5b60008083815260200190815260200160002060008473ffffffffffffffffffffffffffffffffffffffff1673ffffffffffffffffffffffffffffffffffffffff16815260200190815260200160002054905092915050565b60007fd9b67a26000000000000000000000000000000000000000000000000000000007bffffffffffffffffffffffffffffffffffffffffffffffffffffffff1916827bffffffffffffffffffffffffffffffffffffffffffffffffffffffff1916148061040157507f0e89341c000000000000000000000000000000000000000000000000000000007bffffffffffffffffffffffffffffffffffffffffffffffffffffffff1916827bffffffffffffffffffffffffffffffffffffffffffffffffffffffff1916145b80610411575061041082610d8f565b5b9050919050565b60606002805461042790612df1565b80601f016020809104026020016040519081016040528092919081815260200182805461045390612df1565b80156104a05780601f10610475576101008083540402835291602001916104a0565b820191906000526020600020905b81548152906001019060200180831161048357829003601f168201915b50505050509050919050565b6104b4610df9565b73ffffffffffffffffffffffffffffffffffffffff168573ffffffffffffffffffffffffffffffffffffffff1614806104fa57506104f9856104f4610df9565b610bbd565b5b610539576040517f08c379a000000000000000000000000000000000000000000000000000000000815260040161053090612e94565b60405180910390fd5b6105468585858585610e01565b5050505050565b60608151835114610593576040517f08c379a000000000000000000000000000000000000000000000000000000000815260040161058a90612f26565b60405180910390fd5b6000835167ffffffffffffffff8111156105b0576105af612377565b5b6040519080825280602002602001820160405280156105de5781602001602082028036833780820191505090505b50905060005b845181101561065b5761062b85828151811061060357610602612f46565b5b602002602001015185838151811061061e5761061d612f46565b5b602002602001015161026e565b82828151811061063e5761063d612f46565b5b6020026020010181815250508061065490612fa4565b90506105e4565b508091505092915050565b61066e612048565b610676612048565b60005b60078160ff1610156108f45760038160ff166007811061069c5761069b612f46565b5b60040201604051806080016040529081600082015481526020016001820180546106c590612df1565b80601f01602080910402602001604051908101604052809291908181526020018280546106f190612df1565b801561073e5780601f106107135761010080835404028352916020019161073e565b820191906000526020600020905b81548152906001019060200180831161072157829003601f168201915b50505050508152602001600282018054806020026020016040519081016040528092919081815260200182805480156107bc57602002820191906000526020600020906000905b82829054906101000a900460ff1660ff16815260200190600101906020826000010492830192600103820291508084116107855790505b505050505081526020016003820160009054906101000a900460ff161515151581525050828260ff16600781106107f6576107f5612f46565b5b60200201516000018190525061080f338260ff1661026e565b828260ff166007811061082557610824612f46565b5b6020020151602001818152505060038160ff166007811061084957610848612f46565b5b6004020160030160009054906101000a900460ff166108695760006108be565b601f60003373ffffffffffffffffffffffffffffffffffffffff1673ffffffffffffffffffffffffffffffffffffffff16815260200190815260200160002060008260ff168152602001908152602001600020545b828260ff16600781106108d4576108d3612f46565b5b6020020151604001818152505080806108ec90612fec565b915050610679565b508091505090565b610904610df9565b73ffffffffffffffffffffffffffffffffffffffff168373ffffffffffffffffffffffffffffffffffffffff16148061094a575061094983610944610df9565b610bbd565b5b610989576040517f08c379a000000000000000000000000000000000000000000000000000000000815260040161098090612e94565b60405180910390fd5b610994838383611122565b505050565b6109ab6109a4610df9565b83836113f0565b5050565b6000339050600382600781106109c8576109c7612f46565b5b6004020160030160009054906101000a900460ff168015610a44575042603c601f60008473ffffffffffffffffffffffffffffffffffffffff1673ffffffffffffffffffffffffffffffffffffffff168152602001908152602001600020600085815260200190815260200160002054610a429190613015565b115b15610a7b576040517f7066446200000000000000000000000000000000000000000000000000000000815260040160405180910390fd5b60005b60038360078110610a9257610a91612f46565b5b60040201600201805490508160ff161015610b1857610b058260038560078110610abf57610abe612f46565b5b600402016002018360ff1681548110610adb57610ada612f46565b5b90600052602060002090602091828204019190069054906101000a900460ff1660ff16600161155c565b8080610b1090612fec565b915050610a7e565b50610b3581836001604051806020016040528060008152506117a2565b60038260078110610b4957610b48612f46565b5b6004020160030160009054906101000a900460ff1615610bb95742601f60008373ffffffffffffffffffffffffffffffffffffffff1673ffffffffffffffffffffffffffffffffffffffff1681526020019081526020016000206000848152602001908152602001600020819055505b5050565b6000600160008473ffffffffffffffffffffffffffffffffffffffff1673ffffffffffffffffffffffffffffffffffffffff16815260200190815260200160002060008373ffffffffffffffffffffffffffffffffffffffff1673ffffffffffffffffffffffffffffffffffffffff16815260200190815260200160002060009054906101000a900460ff16905092915050565b610c59610df9565b73ffffffffffffffffffffffffffffffffffffffff168573ffffffffffffffffffffffffffffffffffffffff161480610c9f5750610c9e85610c99610df9565b610bbd565b5b610cde576040517f08c379a0000000000000000000000000000000000000000000000000000000008152600401610cd590612e94565b60405180910390fd5b610ceb8585858585611952565b5050505050565b610cfa610df9565b73ffffffffffffffffffffffffffffffffffffffff168373ffffffffffffffffffffffffffffffffffffffff161480610d405750610d3f83610d3a610df9565b610bbd565b5b610d7f576040517f08c379a0000000000000000000000000000000000000000000000000000000008152600401610d7690612e94565b60405180910390fd5b610d8a83838361155c565b505050565b60007f01ffc9a7000000000000000000000000000000000000000000000000000000007bffffffffffffffffffffffffffffffffffffffffffffffffffffffff1916827bffffffffffffffffffffffffffffffffffffffffffffffffffffffff1916149050919050565b600033905090565b8151835114610e45576040517f08c379a0000000000000000000000000000000000000000000000000000000008152600401610e3c906130bb565b60405180910390fd5b600073ffffffffffffffffffffffffffffffffffffffff168473ffffffffffffffffffffffffffffffffffffffff1603610eb4576040517f08c379a0000000000000000000000000000000000000000000000000000000008152600401610eab9061314d565b60405180910390fd5b6000610ebe610df9565b9050610ece818787878787611bed565b60005b845181101561107f576000858281518110610eef57610eee612f46565b5b602002602001015190506000858381518110610f0e57610f0d612f46565b5b60200260200101519050600080600084815260200190815260200160002060008b73ffffffffffffffffffffffffffffffffffffffff1673ffffffffffffffffffffffffffffffffffffffff16815260200190815260200160002054905081811015610faf576040517f08c379a0000000000000000000000000000000000000000000000000000000008152600401610fa6906131df565b60405180910390fd5b81810360008085815260200190815260200160002060008c73ffffffffffffffffffffffffffffffffffffffff1673ffffffffffffffffffffffffffffffffffffffff168152602001908152602001600020819055508160008085815260200190815260200160002060008b73ffffffffffffffffffffffffffffffffffffffff1673ffffffffffffffffffffffffffffffffffffffff16815260200190815260200160002060008282546110649190613015565b925050819055505050508061107890612fa4565b9050610ed1565b508473ffffffffffffffffffffffffffffffffffffffff168673ffffffffffffffffffffffffffffffffffffffff168273ffffffffffffffffffffffffffffffffffffffff167f4a39dc06d4c0dbc64b70af90fd698a233a518aa5d07e595d983b8c0526c8f7fb87876040516110f69291906131ff565b60405180910390a461110c818787878787611bf5565b61111a818787878787611bfd565b505050505050565b600073ffffffffffffffffffffffffffffffffffffffff168373ffffffffffffffffffffffffffffffffffffffff1603611191576040517f08c379a0000000000000000000000000000000000000000000000000000000008152600401611188906132a8565b60405180910390fd5b80518251146111d5576040517f08c379a00000000000000000000000000000000000000000000000000000000081526004016111cc906130bb565b60405180910390fd5b60006111df610df9565b90506111ff81856000868660405180602001604052806000815250611bed565b60005b835181101561134c5760008482815181106112205761121f612f46565b5b60200260200101519050600084838151811061123f5761123e612f46565b5b60200260200101519050600080600084815260200190815260200160002060008973ffffffffffffffffffffffffffffffffffffffff1673ffffffffffffffffffffffffffffffffffffffff168152602001908152602001600020549050818110156112e0576040517f08c379a00000000000000000000000000000000000000000000000000000000081526004016112d79061333a565b60405180910390fd5b81810360008085815260200190815260200160002060008a73ffffffffffffffffffffffffffffffffffffffff1673ffffffffffffffffffffffffffffffffffffffff16815260200190815260200160002081905550505050808061134490612fa4565b915050611202565b50600073ffffffffffffffffffffffffffffffffffffffff168473ffffffffffffffffffffffffffffffffffffffff168273ffffffffffffffffffffffffffffffffffffffff167f4a39dc06d4c0dbc64b70af90fd698a233a518aa5d07e595d983b8c0526c8f7fb86866040516113c49291906131ff565b60405180910390a46113ea81856000868660405180602001604052806000815250611bf5565b50505050565b8173ffffffffffffffffffffffffffffffffffffffff168373ffffffffffffffffffffffffffffffffffffffff160361145e576040517f08c379a0000000000000000000000000000000000000000000000000000000008152600401611455906133cc565b60405180910390fd5b80600160008573ffffffffffffffffffffffffffffffffffffffff1673ffffffffffffffffffffffffffffffffffffffff16815260200190815260200160002060008473ffffffffffffffffffffffffffffffffffffffff1673ffffffffffffffffffffffffffffffffffffffff16815260200190815260200160002060006101000a81548160ff0219169083151502179055508173ffffffffffffffffffffffffffffffffffffffff168373ffffffffffffffffffffffffffffffffffffffff167f17307eab39ab6107e8899845ad3d59bd9653f200f220920489ca2b5937696c318360405161154f9190612278565b60405180910390a3505050565b600073ffffffffffffffffffffffffffffffffffffffff168373ffffffffffffffffffffffffffffffffffffffff16036115cb576040517f08c379a00000000000000000000000000000000000000000000000000000000081526004016115c2906132a8565b60405180910390fd5b60006115d5610df9565b905060006115e284611dd4565b905060006115ef84611dd4565b905061160f83876000858560405180602001604052806000815250611bed565b600080600087815260200190815260200160002060008873ffffffffffffffffffffffffffffffffffffffff1673ffffffffffffffffffffffffffffffffffffffff168152602001908152602001600020549050848110156116a6576040517f08c379a000000000000000000000000000000000000000000000000000000000815260040161169d9061333a565b60405180910390fd5b84810360008088815260200190815260200160002060008973ffffffffffffffffffffffffffffffffffffffff1673ffffffffffffffffffffffffffffffffffffffff16815260200190815260200160002081905550600073ffffffffffffffffffffffffffffffffffffffff168773ffffffffffffffffffffffffffffffffffffffff168573ffffffffffffffffffffffffffffffffffffffff167fc3d58168c5ae7397731d063d5bbf3d657854427343f4c083240f7aacaa2d0f6289896040516117739291906133ec565b60405180910390a461179984886000868660405180602001604052806000815250611bf5565b50505050505050565b600073ffffffffffffffffffffffffffffffffffffffff168473ffffffffffffffffffffffffffffffffffffffff1603611811576040517f08c379a000000000000000000000000000000000000000000000000000000000815260040161180890613487565b60405180910390fd5b600061181b610df9565b9050600061182885611dd4565b9050600061183585611dd4565b905061184683600089858589611bed565b8460008088815260200190815260200160002060008973ffffffffffffffffffffffffffffffffffffffff1673ffffffffffffffffffffffffffffffffffffffff16815260200190815260200160002060008282546118a59190613015565b925050819055508673ffffffffffffffffffffffffffffffffffffffff16600073ffffffffffffffffffffffffffffffffffffffff168473ffffffffffffffffffffffffffffffffffffffff167fc3d58168c5ae7397731d063d5bbf3d657854427343f4c083240f7aacaa2d0f6289896040516119239291906133ec565b60405180910390a461193a83600089858589611bf5565b61194983600089898989611e4e565b50505050505050565b600073ffffffffffffffffffffffffffffffffffffffff168473ffffffffffffffffffffffffffffffffffffffff16036119c1576040517f08c379a00000000000000000000000000000000000000000000000000000000081526004016119b89061314d565b60405180910390fd5b60006119cb610df9565b905060006119d885611dd4565b905060006119e585611dd4565b90506119f5838989858589611bed565b600080600088815260200190815260200160002060008a73ffffffffffffffffffffffffffffffffffffffff1673ffffffffffffffffffffffffffffffffffffffff16815260200190815260200160002054905085811015611a8c576040517f08c379a0000000000000000000000000000000000000000000000000000000008152600401611a83906131df565b60405180910390fd5b85810360008089815260200190815260200160002060008b73ffffffffffffffffffffffffffffffffffffffff1673ffffffffffffffffffffffffffffffffffffffff168152602001908152602001600020819055508560008089815260200190815260200160002060008a73ffffffffffffffffffffffffffffffffffffffff1673ffffffffffffffffffffffffffffffffffffffff1681526020019081526020016000206000828254611b419190613015565b925050819055508773ffffffffffffffffffffffffffffffffffffffff168973ffffffffffffffffffffffffffffffffffffffff168573ffffffffffffffffffffffffffffffffffffffff167fc3d58168c5ae7397731d063d5bbf3d657854427343f4c083240f7aacaa2d0f628a8a604051611bbe9291906133ec565b60405180910390a4611bd4848a8a86868a611bf5565b611be2848a8a8a8a8a611e4e565b505050505050505050565b505050505050565b505050505050565b611c1c8473ffffffffffffffffffffffffffffffffffffffff16612025565b15611dcc578373ffffffffffffffffffffffffffffffffffffffff1663bc197c8187878686866040518663ffffffff1660e01b8152600401611c6295949392919061350b565b6020604051808303816000875af1925050508015611c9e57506040513d601f19601f82011682018060405250810190611c9b9190613588565b60015b611d4357611caa6135c2565b806308c379a003611d065750611cbe6135e4565b80611cc95750611d08565b806040517f08c379a0000000000000000000000000000000000000000000000000000000008152600401611cfd9190612350565b60405180910390fd5b505b6040517f08c379a0000000000000000000000000000000000000000000000000000000008152600401611d3a906136e6565b60405180910390fd5b63bc197c8160e01b7bffffffffffffffffffffffffffffffffffffffffffffffffffffffff1916817bffffffffffffffffffffffffffffffffffffffffffffffffffffffff191614611dca576040517f08c379a0000000000000000000000000000000000000000000000000000000008152600401611dc190613778565b60405180910390fd5b505b505050505050565b60606000600167ffffffffffffffff811115611df357611df2612377565b5b604051908082528060200260200182016040528015611e215781602001602082028036833780820191505090505b5090508281600081518110611e3957611e38612f46565b5b60200260200101818152505080915050919050565b611e6d8473ffffffffffffffffffffffffffffffffffffffff16612025565b1561201d578373ffffffffffffffffffffffffffffffffffffffff1663f23a6e6187878686866040518663ffffffff1660e01b8152600401611eb3959493929190613798565b6020604051808303816000875af1925050508015611eef57506040513d601f19601f82011682018060405250810190611eec9190613588565b60015b611f9457611efb6135c2565b806308c379a003611f575750611f0f6135e4565b80611f1a5750611f59565b806040517f08c379a0000000000000000000000000000000000000000000000000000000008152600401611f4e9190612350565b60405180910390fd5b505b6040517f08c379a0000000000000000000000000000000000000000000000000000000008152600401611f8b906136e6565b60405180910390fd5b63f23a6e6160e01b7bffffffffffffffffffffffffffffffffffffffffffffffffffffffff1916817bffffffffffffffffffffffffffffffffffffffffffffffffffffffff19161461201b576040517f08c379a000000000000000000000000000000000000000000000000000000000815260040161201290613778565b60405180910390fd5b505b505050505050565b6000808273ffffffffffffffffffffffffffffffffffffffff163b119050919050565b6040518060e001604052806007905b61205f612075565b8152602001906001900390816120575790505090565b604051806060016040528061208861209c565b815260200160008152602001600081525090565b60405180608001604052806000815260200160608152602001606081526020016000151581525090565b6000604051905090565b600080fd5b600080fd5b600073ffffffffffffffffffffffffffffffffffffffff82169050919050565b6000612105826120da565b9050919050565b612115816120fa565b811461212057600080fd5b50565b6000813590506121328161210c565b92915050565b6000819050919050565b61214b81612138565b811461215657600080fd5b50565b60008135905061216881612142565b92915050565b60008060408385031215612185576121846120d0565b5b600061219385828601612123565b92505060206121a485828601612159565b9150509250929050565b6121b781612138565b82525050565b60006020820190506121d260008301846121ae565b92915050565b60007fffffffff0000000000000000000000000000000000000000000000000000000082169050919050565b61220d816121d8565b811461221857600080fd5b50565b60008135905061222a81612204565b92915050565b600060208284031215612246576122456120d0565b5b60006122548482850161221b565b91505092915050565b60008115159050919050565b6122728161225d565b82525050565b600060208201905061228d6000830184612269565b92915050565b6000602082840312156122a9576122a86120d0565b5b60006122b784828501612159565b91505092915050565b600081519050919050565b600082825260208201905092915050565b60005b838110156122fa5780820151818401526020810190506122df565b60008484015250505050565b6000601f19601f8301169050919050565b6000612322826122c0565b61232c81856122cb565b935061233c8185602086016122dc565b61234581612306565b840191505092915050565b6000602082019050818103600083015261236a8184612317565b905092915050565b600080fd5b7f4e487b7100000000000000000000000000000000000000000000000000000000600052604160045260246000fd5b6123af82612306565b810181811067ffffffffffffffff821117156123ce576123cd612377565b5b80604052505050565b60006123e16120c6565b90506123ed82826123a6565b919050565b600067ffffffffffffffff82111561240d5761240c612377565b5b602082029050602081019050919050565b600080fd5b6000612436612431846123f2565b6123d7565b905080838252602082019050602084028301858111156124595761245861241e565b5b835b81811015612482578061246e8882612159565b84526020840193505060208101905061245b565b5050509392505050565b600082601f8301126124a1576124a0612372565b5b81356124b1848260208601612423565b91505092915050565b600080fd5b600067ffffffffffffffff8211156124da576124d9612377565b5b6124e382612306565b9050602081019050919050565b82818337600083830152505050565b600061251261250d846124bf565b6123d7565b90508281526020810184848401111561252e5761252d6124ba565b5b6125398482856124f0565b509392505050565b600082601f83011261255657612555612372565b5b81356125668482602086016124ff565b91505092915050565b600080600080600060a0868803121561258b5761258a6120d0565b5b600061259988828901612123565b95505060206125aa88828901612123565b945050604086013567ffffffffffffffff8111156125cb576125ca6120d5565b5b6125d78882890161248c565b935050606086013567ffffffffffffffff8111156125f8576125f76120d5565b5b6126048882890161248c565b925050608086013567ffffffffffffffff811115612625576126246120d5565b5b61263188828901612541565b9150509295509295909350565b600067ffffffffffffffff82111561265957612658612377565b5b602082029050602081019050919050565b600061267d6126788461263e565b6123d7565b905080838252602082019050602084028301858111156126a05761269f61241e565b5b835b818110156126c957806126b58882612123565b8452602084019350506020810190506126a2565b5050509392505050565b600082601f8301126126e8576126e7612372565b5b81356126f884826020860161266a565b91505092915050565b60008060408385031215612718576127176120d0565b5b600083013567ffffffffffffffff811115612736576127356120d5565b5b612742858286016126d3565b925050602083013567ffffffffffffffff811115612763576127626120d5565b5b61276f8582860161248c565b9150509250929050565b600081519050919050565b600082825260208201905092915050565b6000819050602082019050919050565b6127ae81612138565b82525050565b60006127c083836127a5565b60208301905092915050565b6000602082019050919050565b60006127e482612779565b6127ee8185612784565b93506127f983612795565b8060005b8381101561282a57815161281188826127b4565b975061281c836127cc565b9250506001810190506127fd565b5085935050505092915050565b6000602082019050818103600083015261285181846127d9565b905092915050565b600060079050919050565b600081905092915050565b6000819050919050565b600082825260208201905092915050565b6000612895826122c0565b61289f8185612879565b93506128af8185602086016122dc565b6128b881612306565b840191505092915050565b600081519050919050565b600082825260208201905092915050565b6000819050602082019050919050565b600060ff82169050919050565b612905816128ef565b82525050565b600061291783836128fc565b60208301905092915050565b6000602082019050919050565b600061293b826128c3565b61294581856128ce565b9350612950836128df565b8060005b83811015612981578151612968888261290b565b975061297383612923565b925050600181019050612954565b5085935050505092915050565b6129978161225d565b82525050565b60006080830160008301516129b560008601826127a5565b50602083015184820360208601526129cd828261288a565b915050604083015184820360408601526129e78282612930565b91505060608301516129fc606086018261298e565b508091505092915050565b60006060830160008301518482036000860152612a24828261299d565b9150506020830151612a3960208601826127a5565b506040830151612a4c60408601826127a5565b508091505092915050565b6000612a638383612a07565b905092915050565b6000602082019050919050565b6000612a8382612859565b612a8d8185612864565b935083602082028501612a9f8561286f565b8060005b85811015612adb5784840389528151612abc8582612a57565b9450612ac783612a6b565b925060208a01995050600181019050612aa3565b50829750879550505050505092915050565b60006020820190508181036000830152612b078184612a78565b905092915050565b600080600060608486031215612b2857612b276120d0565b5b6000612b3686828701612123565b935050602084013567ffffffffffffffff811115612b5757612b566120d5565b5b612b638682870161248c565b925050604084013567ffffffffffffffff811115612b8457612b836120d5565b5b612b908682870161248c565b9150509250925092565b612ba38161225d565b8114612bae57600080fd5b50565b600081359050612bc081612b9a565b92915050565b60008060408385031215612bdd57612bdc6120d0565b5b6000612beb85828601612123565b9250506020612bfc85828601612bb1565b9150509250929050565b60008060408385031215612c1d57612c1c6120d0565b5b6000612c2b85828601612123565b9250506020612c3c85828601612123565b9150509250929050565b600080600080600060a08688031215612c6257612c616120d0565b5b6000612c7088828901612123565b9550506020612c8188828901612123565b9450506040612c9288828901612159565b9350506060612ca388828901612159565b925050608086013567ffffffffffffffff811115612cc457612cc36120d5565b5b612cd088828901612541565b9150509295509295909350565b600080600060608486031215612cf657612cf56120d0565b5b6000612d0486828701612123565b9350506020612d1586828701612159565b9250506040612d2686828701612159565b9150509250925092565b7f455243313135353a2061646472657373207a65726f206973206e6f742061207660008201527f616c6964206f776e657200000000000000000000000000000000000000000000602082015250565b6000612d8c602a836122cb565b9150612d9782612d30565b604082019050919050565b60006020820190508181036000830152612dbb81612d7f565b9050919050565b7f4e487b7100000000000000000000000000000000000000000000000000000000600052602260045260246000fd5b60006002820490506001821680612e0957607f821691505b602082108103612e1c57612e1b612dc2565b5b50919050565b7f455243313135353a2063616c6c6572206973206e6f7420746f6b656e206f776e60008201527f6572206f7220617070726f766564000000000000000000000000000000000000602082015250565b6000612e7e602e836122cb565b9150612e8982612e22565b604082019050919050565b60006020820190508181036000830152612ead81612e71565b9050919050565b7f455243313135353a206163636f756e747320616e6420696473206c656e67746860008201527f206d69736d617463680000000000000000000000000000000000000000000000602082015250565b6000612f106029836122cb565b9150612f1b82612eb4565b604082019050919050565b60006020820190508181036000830152612f3f81612f03565b9050919050565b7f4e487b7100000000000000000000000000000000000000000000000000000000600052603260045260246000fd5b7f4e487b7100000000000000000000000000000000000000000000000000000000600052601160045260246000fd5b6000612faf82612138565b91507fffffffffffffffffffffffffffffffffffffffffffffffffffffffffffffffff8203612fe157612fe0612f75565b5b600182019050919050565b6000612ff7826128ef565b915060ff820361300a57613009612f75565b5b600182019050919050565b600061302082612138565b915061302b83612138565b925082820190508082111561304357613042612f75565b5b92915050565b7f455243313135353a2069647320616e6420616d6f756e7473206c656e6774682060008201527f6d69736d61746368000000000000000000000000000000000000000000000000602082015250565b60006130a56028836122cb565b91506130b082613049565b604082019050919050565b600060208201905081810360008301526130d481613098565b9050919050565b7f455243313135353a207472616e7366657220746f20746865207a65726f20616460008201527f6472657373000000000000000000000000000000000000000000000000000000602082015250565b60006131376025836122cb565b9150613142826130db565b604082019050919050565b600060208201905081810360008301526131668161312a565b9050919050565b7f455243313135353a20696e73756666696369656e742062616c616e636520666f60008201527f72207472616e7366657200000000000000000000000000000000000000000000602082015250565b60006131c9602a836122cb565b91506131d48261316d565b604082019050919050565b600060208201905081810360008301526131f8816131bc565b9050919050565b6000604082019050818103600083015261321981856127d9565b9050818103602083015261322d81846127d9565b90509392505050565b7f455243313135353a206275726e2066726f6d20746865207a65726f206164647260008201527f6573730000000000000000000000000000000000000000000000000000000000602082015250565b60006132926023836122cb565b915061329d82613236565b604082019050919050565b600060208201905081810360008301526132c181613285565b9050919050565b7f455243313135353a206275726e20616d6f756e7420657863656564732062616c60008201527f616e636500000000000000000000000000000000000000000000000000000000602082015250565b60006133246024836122cb565b915061332f826132c8565b604082019050919050565b6000602082019050818103600083015261335381613317565b9050919050565b7f455243313135353a2073657474696e6720617070726f76616c2073746174757360008201527f20666f722073656c660000000000000000000000000000000000000000000000602082015250565b60006133b66029836122cb565b91506133c18261335a565b604082019050919050565b600060208201905081810360008301526133e5816133a9565b9050919050565b600060408201905061340160008301856121ae565b61340e60208301846121ae565b9392505050565b7f455243313135353a206d696e7420746f20746865207a65726f2061646472657360008201527f7300000000000000000000000000000000000000000000000000000000000000602082015250565b60006134716021836122cb565b915061347c82613415565b604082019050919050565b600060208201905081810360008301526134a081613464565b9050919050565b6134b0816120fa565b82525050565b600081519050919050565b600082825260208201905092915050565b60006134dd826134b6565b6134e781856134c1565b93506134f78185602086016122dc565b61350081612306565b840191505092915050565b600060a08201905061352060008301886134a7565b61352d60208301876134a7565b818103604083015261353f81866127d9565b9050818103606083015261355381856127d9565b9050818103608083015261356781846134d2565b90509695505050505050565b60008151905061358281612204565b92915050565b60006020828403121561359e5761359d6120d0565b5b60006135ac84828501613573565b91505092915050565b60008160e01c9050919050565b600060033d11156135e15760046000803e6135de6000516135b5565b90505b90565b600060443d10613671576135f66120c6565b60043d036004823e80513d602482011167ffffffffffffffff8211171561361e575050613671565b808201805167ffffffffffffffff81111561363c5750505050613671565b80602083010160043d038501811115613659575050505050613671565b613668826020018501866123a6565b82955050505050505b90565b7f455243313135353a207472616e7366657220746f206e6f6e2d4552433131353560008201527f526563656976657220696d706c656d656e746572000000000000000000000000602082015250565b60006136d06034836122cb565b91506136db82613674565b604082019050919050565b600060208201905081810360008301526136ff816136c3565b9050919050565b7f455243313135353a204552433131353552656365697665722072656a6563746560008201527f6420746f6b656e73000000000000000000000000000000000000000000000000602082015250565b60006137626028836122cb565b915061376d82613706565b604082019050919050565b6000602082019050818103600083015261379181613755565b9050919050565b600060a0820190506137ad60008301886134a7565b6137ba60208301876134a7565b6137c760408301866121ae565b6137d460608301856121ae565b81810360808301526137e681846134d2565b9050969550505050505056fea264697066735822122006bbbf2699482521ce1b0de4623b4690fd38ba5e578140066ff43e8842596bba64736f6c63430008120033697066733a2f2f516d6565386d336a7447754a6636467a6631634338593841595572314545577858594e45337655614e45387037542f7b69647d2e6a736f6e",
  "linkReferences": {},
  "deployedLinkReferences": {}
}